{
  "_format": "hh-sol-artifact-1",
  "contractName": "RoboPunksNFT",
  "sourceName": "contracts/RoboPunksNFT.sol",
  "abi": [
    {
      "inputs": [],
      "stateMutability": "payable",
      "type": "constructor"
    },
    {
      "inputs": [
        {
          "internalType": "address",
          "name": "sender",
          "type": "address"
        },
        {
          "internalType": "uint256",
          "name": "tokenId",
          "type": "uint256"
        },
        {
          "internalType": "address",
          "name": "owner",
          "type": "address"
        }
      ],
      "name": "ERC721IncorrectOwner",
      "type": "error"
    },
    {
      "inputs": [
        {
          "internalType": "address",
          "name": "operator",
          "type": "address"
        },
        {
          "internalType": "uint256",
          "name": "tokenId",
          "type": "uint256"
        }
      ],
      "name": "ERC721InsufficientApproval",
      "type": "error"
    },
    {
      "inputs": [
        {
          "internalType": "address",
          "name": "approver",
          "type": "address"
        }
      ],
      "name": "ERC721InvalidApprover",
      "type": "error"
    },
    {
      "inputs": [
        {
          "internalType": "address",
          "name": "operator",
          "type": "address"
        }
      ],
      "name": "ERC721InvalidOperator",
      "type": "error"
    },
    {
      "inputs": [
        {
          "internalType": "address",
          "name": "owner",
          "type": "address"
        }
      ],
      "name": "ERC721InvalidOwner",
      "type": "error"
    },
    {
      "inputs": [
        {
          "internalType": "address",
          "name": "receiver",
          "type": "address"
        }
      ],
      "name": "ERC721InvalidReceiver",
      "type": "error"
    },
    {
      "inputs": [
        {
          "internalType": "address",
          "name": "sender",
          "type": "address"
        }
      ],
      "name": "ERC721InvalidSender",
      "type": "error"
    },
    {
      "inputs": [
        {
          "internalType": "uint256",
          "name": "tokenId",
          "type": "uint256"
        }
      ],
      "name": "ERC721NonexistentToken",
      "type": "error"
    },
    {
      "inputs": [
        {
          "internalType": "address",
          "name": "owner",
          "type": "address"
        }
      ],
      "name": "OwnableInvalidOwner",
      "type": "error"
    },
    {
      "inputs": [
        {
          "internalType": "address",
          "name": "account",
          "type": "address"
        }
      ],
      "name": "OwnableUnauthorizedAccount",
      "type": "error"
    },
    {
      "anonymous": false,
      "inputs": [
        {
          "indexed": true,
          "internalType": "address",
          "name": "owner",
          "type": "address"
        },
        {
          "indexed": true,
          "internalType": "address",
          "name": "approved",
          "type": "address"
        },
        {
          "indexed": true,
          "internalType": "uint256",
          "name": "tokenId",
          "type": "uint256"
        }
      ],
      "name": "Approval",
      "type": "event"
    },
    {
      "anonymous": false,
      "inputs": [
        {
          "indexed": true,
          "internalType": "address",
          "name": "owner",
          "type": "address"
        },
        {
          "indexed": true,
          "internalType": "address",
          "name": "operator",
          "type": "address"
        },
        {
          "indexed": false,
          "internalType": "bool",
          "name": "approved",
          "type": "bool"
        }
      ],
      "name": "ApprovalForAll",
      "type": "event"
    },
    {
      "anonymous": false,
      "inputs": [
        {
          "indexed": true,
          "internalType": "address",
          "name": "previousOwner",
          "type": "address"
        },
        {
          "indexed": true,
          "internalType": "address",
          "name": "newOwner",
          "type": "address"
        }
      ],
      "name": "OwnershipTransferred",
      "type": "event"
    },
    {
      "anonymous": false,
      "inputs": [
        {
          "indexed": true,
          "internalType": "address",
          "name": "from",
          "type": "address"
        },
        {
          "indexed": true,
          "internalType": "address",
          "name": "to",
          "type": "address"
        },
        {
          "indexed": true,
          "internalType": "uint256",
          "name": "tokenId",
          "type": "uint256"
        }
      ],
      "name": "Transfer",
      "type": "event"
    },
    {
      "inputs": [
        {
          "internalType": "address",
          "name": "to",
          "type": "address"
        },
        {
          "internalType": "uint256",
          "name": "tokenId",
          "type": "uint256"
        }
      ],
      "name": "approve",
      "outputs": [],
      "stateMutability": "nonpayable",
      "type": "function"
    },
    {
      "inputs": [
        {
          "internalType": "address",
          "name": "owner",
          "type": "address"
        }
      ],
      "name": "balanceOf",
      "outputs": [
        {
          "internalType": "uint256",
          "name": "",
          "type": "uint256"
        }
      ],
      "stateMutability": "view",
      "type": "function"
    },
    {
      "inputs": [
        {
          "internalType": "uint256",
          "name": "tokenId",
          "type": "uint256"
        }
      ],
      "name": "getApproved",
      "outputs": [
        {
          "internalType": "address",
          "name": "",
          "type": "address"
        }
      ],
      "stateMutability": "view",
      "type": "function"
    },
    {
      "inputs": [
        {
          "internalType": "address",
          "name": "owner",
          "type": "address"
        },
        {
          "internalType": "address",
          "name": "operator",
          "type": "address"
        }
      ],
      "name": "isApprovedForAll",
      "outputs": [
        {
          "internalType": "bool",
          "name": "",
          "type": "bool"
        }
      ],
      "stateMutability": "view",
      "type": "function"
    },
    {
      "inputs": [],
      "name": "isPublicMintEnabled",
      "outputs": [
        {
          "internalType": "bool",
          "name": "",
          "type": "bool"
        }
      ],
      "stateMutability": "view",
      "type": "function"
    },
    {
      "inputs": [],
      "name": "maxPerWallet",
      "outputs": [
        {
          "internalType": "uint256",
          "name": "",
          "type": "uint256"
        }
      ],
      "stateMutability": "view",
      "type": "function"
    },
    {
      "inputs": [],
      "name": "maxSupply",
      "outputs": [
        {
          "internalType": "uint256",
          "name": "",
          "type": "uint256"
        }
      ],
      "stateMutability": "view",
      "type": "function"
    },
    {
      "inputs": [
        {
          "internalType": "uint256",
          "name": "quantity_",
          "type": "uint256"
        }
      ],
      "name": "mint",
      "outputs": [],
      "stateMutability": "payable",
      "type": "function"
    },
    {
      "inputs": [],
      "name": "mintPrice",
      "outputs": [
        {
          "internalType": "uint256",
          "name": "",
          "type": "uint256"
        }
      ],
      "stateMutability": "view",
      "type": "function"
    },
    {
      "inputs": [],
      "name": "name",
      "outputs": [
        {
          "internalType": "string",
          "name": "",
          "type": "string"
        }
      ],
      "stateMutability": "view",
      "type": "function"
    },
    {
      "inputs": [],
      "name": "owner",
      "outputs": [
        {
          "internalType": "address",
          "name": "",
          "type": "address"
        }
      ],
      "stateMutability": "view",
      "type": "function"
    },
    {
      "inputs": [
        {
          "internalType": "uint256",
          "name": "tokenId",
          "type": "uint256"
        }
      ],
      "name": "ownerOf",
      "outputs": [
        {
          "internalType": "address",
          "name": "",
          "type": "address"
        }
      ],
      "stateMutability": "view",
      "type": "function"
    },
    {
      "inputs": [],
      "name": "renounceOwnership",
      "outputs": [],
      "stateMutability": "nonpayable",
      "type": "function"
    },
    {
      "inputs": [
        {
          "internalType": "address",
          "name": "from",
          "type": "address"
        },
        {
          "internalType": "address",
          "name": "to",
          "type": "address"
        },
        {
          "internalType": "uint256",
          "name": "tokenId",
          "type": "uint256"
        }
      ],
      "name": "safeTransferFrom",
      "outputs": [],
      "stateMutability": "nonpayable",
      "type": "function"
    },
    {
      "inputs": [
        {
          "internalType": "address",
          "name": "from",
          "type": "address"
        },
        {
          "internalType": "address",
          "name": "to",
          "type": "address"
        },
        {
          "internalType": "uint256",
          "name": "tokenId",
          "type": "uint256"
        },
        {
          "internalType": "bytes",
          "name": "data",
          "type": "bytes"
        }
      ],
      "name": "safeTransferFrom",
      "outputs": [],
      "stateMutability": "nonpayable",
      "type": "function"
    },
    {
      "inputs": [
        {
          "internalType": "address",
          "name": "operator",
          "type": "address"
        },
        {
          "internalType": "bool",
          "name": "approved",
          "type": "bool"
        }
      ],
      "name": "setApprovalForAll",
      "outputs": [],
      "stateMutability": "nonpayable",
      "type": "function"
    },
    {
      "inputs": [
        {
          "internalType": "string",
          "name": "baseTokenUri_",
          "type": "string"
        }
      ],
      "name": "setBaseTokenUri",
      "outputs": [],
      "stateMutability": "nonpayable",
      "type": "function"
    },
    {
      "inputs": [
        {
          "internalType": "bool",
          "name": "isPublicMintEnabled_",
          "type": "bool"
        }
      ],
      "name": "setIsPublicMintEnabled",
      "outputs": [],
      "stateMutability": "nonpayable",
      "type": "function"
    },
    {
      "inputs": [
        {
          "internalType": "bytes4",
          "name": "interfaceId",
          "type": "bytes4"
        }
      ],
      "name": "supportsInterface",
      "outputs": [
        {
          "internalType": "bool",
          "name": "",
          "type": "bool"
        }
      ],
      "stateMutability": "view",
      "type": "function"
    },
    {
      "inputs": [],
      "name": "symbol",
      "outputs": [
        {
          "internalType": "string",
          "name": "",
          "type": "string"
        }
      ],
      "stateMutability": "view",
      "type": "function"
    },
    {
      "inputs": [
        {
          "internalType": "uint256",
          "name": "tokenId_",
          "type": "uint256"
        }
      ],
      "name": "tokenURI",
      "outputs": [
        {
          "internalType": "string",
          "name": "",
          "type": "string"
        }
      ],
      "stateMutability": "view",
      "type": "function"
    },
    {
      "inputs": [],
      "name": "totalSupply",
      "outputs": [
        {
          "internalType": "uint256",
          "name": "",
          "type": "uint256"
        }
      ],
      "stateMutability": "view",
      "type": "function"
    },
    {
      "inputs": [
        {
          "internalType": "address",
          "name": "from",
          "type": "address"
        },
        {
          "internalType": "address",
          "name": "to",
          "type": "address"
        },
        {
          "internalType": "uint256",
          "name": "tokenId",
          "type": "uint256"
        }
      ],
      "name": "transferFrom",
      "outputs": [],
      "stateMutability": "nonpayable",
      "type": "function"
    },
    {
      "inputs": [
        {
          "internalType": "address",
          "name": "newOwner",
          "type": "address"
        }
      ],
      "name": "transferOwnership",
      "outputs": [],
      "stateMutability": "nonpayable",
      "type": "function"
    },
    {
      "inputs": [
        {
          "internalType": "address",
          "name": "",
          "type": "address"
        }
      ],
      "name": "walletMints",
      "outputs": [
        {
          "internalType": "uint256",
          "name": "",
          "type": "uint256"
        }
      ],
      "stateMutability": "view",
      "type": "function"
    },
    {
      "inputs": [],
      "name": "withdraw",
      "outputs": [],
      "stateMutability": "nonpayable",
      "type": "function"
    },
    {
      "inputs": [],
      "name": "withdrawWallet",
      "outputs": [
        {
          "internalType": "address payable",
          "name": "",
          "type": "address"
        }
      ],
      "stateMutability": "view",
      "type": "function"
    }
  ],
  "bytecode": "0x6080604052336040518060400160405280600981526020017f526f626f50756e6b7300000000000000000000000000000000000000000000008152506040518060400160405280600281526020017f525000000000000000000000000000000000000000000000000000000000000081525081600090816100809190610457565b5080600190816100909190610457565b505050600073ffffffffffffffffffffffffffffffffffffffff168173ffffffffffffffffffffffffffffffffffffffff16036101055760006040517f1e4fbdf70000000000000000000000000000000000000000000000000000000081526004016100fc919061056a565b60405180910390fd5b6101148161014160201b60201c565b5066470de4df82000060078190555060006008819055506103e86009819055506003600a81905550610585565b6000600660009054906101000a900473ffffffffffffffffffffffffffffffffffffffff16905081600660006101000a81548173ffffffffffffffffffffffffffffffffffffffff021916908373ffffffffffffffffffffffffffffffffffffffff1602179055508173ffffffffffffffffffffffffffffffffffffffff168173ffffffffffffffffffffffffffffffffffffffff167f8be0079c531659141344cd1fd0a4f28419497f9722a3daafe3b4186f6b6457e060405160405180910390a35050565b600081519050919050565b7f4e487b7100000000000000000000000000000000000000000000000000000000600052604160045260246000fd5b7f4e487b7100000000000000000000000000000000000000000000000000000000600052602260045260246000fd5b6000600282049050600182168061028857607f821691505b60208210810361029b5761029a610241565b5b50919050565b60008190508160005260206000209050919050565b60006020601f8301049050919050565b600082821b905092915050565b6000600883026103037fffffffffffffffffffffffffffffffffffffffffffffffffffffffffffffffff826102c6565b61030d86836102c6565b95508019841693508086168417925050509392505050565b6000819050919050565b6000819050919050565b600061035461034f61034a84610325565b61032f565b610325565b9050919050565b6000819050919050565b61036e83610339565b61038261037a8261035b565b8484546102d3565b825550505050565b600090565b61039761038a565b6103a2818484610365565b505050565b5b818110156103c6576103bb60008261038f565b6001810190506103a8565b5050565b601f82111561040b576103dc816102a1565b6103e5846102b6565b810160208510156103f4578190505b610408610400856102b6565b8301826103a7565b50505b505050565b600082821c905092915050565b600061042e60001984600802610410565b1980831691505092915050565b6000610447838361041d565b9150826002028217905092915050565b61046082610207565b67ffffffffffffffff81111561047957610478610212565b5b6104838254610270565b61048e8282856103ca565b600060209050601f8311600181146104c157600084156104af578287015190505b6104b9858261043b565b865550610521565b601f1984166104cf866102a1565b60005b828110156104f7578489015182556001820191506020850194506020810190506104d2565b868310156105145784890151610510601f89168261041d565b8355505b6001600288020188555050505b505050505050565b600073ffffffffffffffffffffffffffffffffffffffff82169050919050565b600061055482610529565b9050919050565b61056481610549565b82525050565b600060208201905061057f600083018461055b565b92915050565b612e5f806105946000396000f3fe60806040526004361061019c5760003560e01c806370a08231116100ec578063a22cb4651161008a578063d5abeb0111610064578063d5abeb0114610593578063e985e9c5146105be578063f0293fd3146105fb578063f2fde38b146106385761019c565b8063a22cb46514610504578063b88d4fde1461052d578063c87b56dd146105565761019c565b80638da5cb5b116100c65780638da5cb5b1461046957806395652cfa1461049457806395d89b41146104bd578063a0712d68146104e85761019c565b806370a08231146103ea578063715018a61461042757806385d178f41461043e5761019c565b80632373ac221161015957806342842e0e1161013357806342842e0e1461032e578063453c2310146103575780636352211e146103825780636817c76c146103bf5761019c565b80632373ac22146102c557806323b872dd146102ee5780633ccfd60b146103175761019c565b80630116bc2d146101a157806301ffc9a7146101cc57806306fdde0314610209578063081812fc14610234578063095ea7b31461027157806318160ddd1461029a575b600080fd5b3480156101ad57600080fd5b506101b6610661565b6040516101c39190611e92565b60405180910390f35b3480156101d857600080fd5b506101f360048036038101906101ee9190611f19565b610674565b6040516102009190611e92565b60405180910390f35b34801561021557600080fd5b5061021e610756565b60405161022b9190611fd6565b60405180910390f35b34801561024057600080fd5b5061025b6004803603810190610256919061202e565b6107e8565b604051610268919061209c565b60405180910390f35b34801561027d57600080fd5b50610298600480360381019061029391906120e3565b610804565b005b3480156102a657600080fd5b506102af61081a565b6040516102bc9190612132565b60405180910390f35b3480156102d157600080fd5b506102ec60048036038101906102e79190612179565b610820565b005b3480156102fa57600080fd5b50610315600480360381019061031091906121a6565b610845565b005b34801561032357600080fd5b5061032c610947565b005b34801561033a57600080fd5b50610355600480360381019061035091906121a6565b610a20565b005b34801561036357600080fd5b5061036c610a40565b6040516103799190612132565b60405180910390f35b34801561038e57600080fd5b506103a960048036038101906103a4919061202e565b610a46565b6040516103b6919061209c565b60405180910390f35b3480156103cb57600080fd5b506103d4610a58565b6040516103e19190612132565b60405180910390f35b3480156103f657600080fd5b50610411600480360381019061040c91906121f9565b610a5e565b60405161041e9190612132565b60405180910390f35b34801561043357600080fd5b5061043c610b18565b005b34801561044a57600080fd5b50610453610b2c565b6040516104609190612247565b60405180910390f35b34801561047557600080fd5b5061047e610b52565b60405161048b919061209c565b60405180910390f35b3480156104a057600080fd5b506104bb60048036038101906104b691906122c7565b610b7c565b005b3480156104c957600080fd5b506104d2610b9a565b6040516104df9190611fd6565b60405180910390f35b61050260048036038101906104fd919061202e565b610c2c565b005b34801561051057600080fd5b5061052b60048036038101906105269190612314565b610dfd565b005b34801561053957600080fd5b50610554600480360381019061054f9190612484565b610e13565b005b34801561056257600080fd5b5061057d6004803603810190610578919061202e565b610e38565b60405161058a9190611fd6565b60405180910390f35b34801561059f57600080fd5b506105a8610e8c565b6040516105b59190612132565b60405180910390f35b3480156105ca57600080fd5b506105e560048036038101906105e09190612507565b610e92565b6040516105f29190611e92565b60405180910390f35b34801561060757600080fd5b50610622600480360381019061061d91906121f9565b610f26565b60405161062f9190612132565b60405180910390f35b34801561064457600080fd5b5061065f600480360381019061065a91906121f9565b610f3e565b005b600b60009054906101000a900460ff1681565b60007f80ac58cd000000000000000000000000000000000000000000000000000000007bffffffffffffffffffffffffffffffffffffffffffffffffffffffff1916827bffffffffffffffffffffffffffffffffffffffffffffffffffffffff1916148061073f57507f5b5e139f000000000000000000000000000000000000000000000000000000007bffffffffffffffffffffffffffffffffffffffffffffffffffffffff1916827bffffffffffffffffffffffffffffffffffffffffffffffffffffffff1916145b8061074f575061074e82610fc4565b5b9050919050565b60606000805461076590612576565b80601f016020809104026020016040519081016040528092919081815260200182805461079190612576565b80156107de5780601f106107b3576101008083540402835291602001916107de565b820191906000526020600020905b8154815290600101906020018083116107c157829003601f168201915b5050505050905090565b60006107f38261102e565b506107fd826110b6565b9050919050565b61081682826108116110f3565b6110fb565b5050565b60085481565b61082861110d565b80600b60006101000a81548160ff02191690831515021790555050565b600073ffffffffffffffffffffffffffffffffffffffff168273ffffffffffffffffffffffffffffffffffffffff16036108b75760006040517f64a0ae920000000000000000000000000000000000000000000000000000000081526004016108ae919061209c565b60405180910390fd5b60006108cb83836108c66110f3565b611194565b90508373ffffffffffffffffffffffffffffffffffffffff168173ffffffffffffffffffffffffffffffffffffffff1614610941578382826040517f64283d7b000000000000000000000000000000000000000000000000000000008152600401610938939291906125a7565b60405180910390fd5b50505050565b61094f61110d565b6000600d60009054906101000a900473ffffffffffffffffffffffffffffffffffffffff1673ffffffffffffffffffffffffffffffffffffffff16476040516109979061260f565b60006040518083038185875af1925050503d80600081146109d4576040519150601f19603f3d011682016040523d82523d6000602084013e6109d9565b606091505b5050905080610a1d576040517f08c379a0000000000000000000000000000000000000000000000000000000008152600401610a1490612670565b60405180910390fd5b50565b610a3b83838360405180602001604052806000815250610e13565b505050565b600a5481565b6000610a518261102e565b9050919050565b60075481565b60008073ffffffffffffffffffffffffffffffffffffffff168273ffffffffffffffffffffffffffffffffffffffff1603610ad15760006040517f89c62b64000000000000000000000000000000000000000000000000000000008152600401610ac8919061209c565b60405180910390fd5b600360008373ffffffffffffffffffffffffffffffffffffffff1673ffffffffffffffffffffffffffffffffffffffff168152602001908152602001600020549050919050565b610b2061110d565b610b2a60006113ae565b565b600d60009054906101000a900473ffffffffffffffffffffffffffffffffffffffff1681565b6000600660009054906101000a900473ffffffffffffffffffffffffffffffffffffffff16905090565b610b8461110d565b8181600c9182610b95929190612847565b505050565b606060018054610ba990612576565b80601f0160208091040260200160405190810160405280929190818152602001828054610bd590612576565b8015610c225780601f10610bf757610100808354040283529160200191610c22565b820191906000526020600020905b815481529060010190602001808311610c0557829003601f168201915b5050505050905090565b600b60009054906101000a900460ff16610c7b576040517f08c379a0000000000000000000000000000000000000000000000000000000008152600401610c7290612963565b60405180910390fd5b60075481610c8991906129b2565b3414610cca576040517f08c379a0000000000000000000000000000000000000000000000000000000008152600401610cc190612a40565b60405180910390fd5b60095481600854610cdb9190612a60565b1115610d1c576040517f08c379a0000000000000000000000000000000000000000000000000000000008152600401610d1390612ae0565b60405180910390fd5b600a5481600e60003373ffffffffffffffffffffffffffffffffffffffff1673ffffffffffffffffffffffffffffffffffffffff16815260200190815260200160002054610d6a9190612a60565b1115610dab576040517f08c379a0000000000000000000000000000000000000000000000000000000008152600401610da290612b4c565b60405180910390fd5b60005b81811015610df95760006001600854610dc79190612a60565b905060086000815480929190610ddc90612b6c565b9190505550610deb3382611474565b508080600101915050610dae565b5050565b610e0f610e086110f3565b8383611492565b5050565b610e1e848484610845565b610e32610e296110f3565b85858585611601565b50505050565b606060008214610e7457600c610e4d836117b2565b604051602001610e5e929190612cbf565b6040516020818303038152906040529050610e87565b6040518060200160405280600081525090505b919050565b60095481565b6000600560008473ffffffffffffffffffffffffffffffffffffffff1673ffffffffffffffffffffffffffffffffffffffff16815260200190815260200160002060008373ffffffffffffffffffffffffffffffffffffffff1673ffffffffffffffffffffffffffffffffffffffff16815260200190815260200160002060009054906101000a900460ff16905092915050565b600e6020528060005260406000206000915090505481565b610f4661110d565b600073ffffffffffffffffffffffffffffffffffffffff168173ffffffffffffffffffffffffffffffffffffffff1603610fb85760006040517f1e4fbdf7000000000000000000000000000000000000000000000000000000008152600401610faf919061209c565b60405180910390fd5b610fc1816113ae565b50565b60007f01ffc9a7000000000000000000000000000000000000000000000000000000007bffffffffffffffffffffffffffffffffffffffffffffffffffffffff1916827bffffffffffffffffffffffffffffffffffffffffffffffffffffffff1916149050919050565b60008061103a83611880565b9050600073ffffffffffffffffffffffffffffffffffffffff168173ffffffffffffffffffffffffffffffffffffffff16036110ad57826040517f7e2732890000000000000000000000000000000000000000000000000000000081526004016110a49190612132565b60405180910390fd5b80915050919050565b60006004600083815260200190815260200160002060009054906101000a900473ffffffffffffffffffffffffffffffffffffffff169050919050565b600033905090565b61110883838360016118bd565b505050565b6111156110f3565b73ffffffffffffffffffffffffffffffffffffffff16611133610b52565b73ffffffffffffffffffffffffffffffffffffffff1614611192576111566110f3565b6040517f118cdaa7000000000000000000000000000000000000000000000000000000008152600401611189919061209c565b60405180910390fd5b565b6000806111a084611880565b9050600073ffffffffffffffffffffffffffffffffffffffff168373ffffffffffffffffffffffffffffffffffffffff16146111e2576111e1818486611a82565b5b600073ffffffffffffffffffffffffffffffffffffffff168173ffffffffffffffffffffffffffffffffffffffff1614611273576112246000856000806118bd565b6001600360008373ffffffffffffffffffffffffffffffffffffffff1673ffffffffffffffffffffffffffffffffffffffff168152602001908152602001600020600082825403925050819055505b600073ffffffffffffffffffffffffffffffffffffffff168573ffffffffffffffffffffffffffffffffffffffff16146112f6576001600360008773ffffffffffffffffffffffffffffffffffffffff1673ffffffffffffffffffffffffffffffffffffffff168152602001908152602001600020600082825401925050819055505b846002600086815260200190815260200160002060006101000a81548173ffffffffffffffffffffffffffffffffffffffff021916908373ffffffffffffffffffffffffffffffffffffffff160217905550838573ffffffffffffffffffffffffffffffffffffffff168273ffffffffffffffffffffffffffffffffffffffff167fddf252ad1be2c89b69c2b068fc378daa952ba7f163c4a11628f55a4df523b3ef60405160405180910390a4809150509392505050565b6000600660009054906101000a900473ffffffffffffffffffffffffffffffffffffffff16905081600660006101000a81548173ffffffffffffffffffffffffffffffffffffffff021916908373ffffffffffffffffffffffffffffffffffffffff1602179055508173ffffffffffffffffffffffffffffffffffffffff168173ffffffffffffffffffffffffffffffffffffffff167f8be0079c531659141344cd1fd0a4f28419497f9722a3daafe3b4186f6b6457e060405160405180910390a35050565b61148e828260405180602001604052806000815250611b46565b5050565b600073ffffffffffffffffffffffffffffffffffffffff168273ffffffffffffffffffffffffffffffffffffffff160361150357816040517f5b08ba180000000000000000000000000000000000000000000000000000000081526004016114fa919061209c565b60405180910390fd5b80600560008573ffffffffffffffffffffffffffffffffffffffff1673ffffffffffffffffffffffffffffffffffffffff16815260200190815260200160002060008473ffffffffffffffffffffffffffffffffffffffff1673ffffffffffffffffffffffffffffffffffffffff16815260200190815260200160002060006101000a81548160ff0219169083151502179055508173ffffffffffffffffffffffffffffffffffffffff168373ffffffffffffffffffffffffffffffffffffffff167f17307eab39ab6107e8899845ad3d59bd9653f200f220920489ca2b5937696c31836040516115f49190611e92565b60405180910390a3505050565b60008373ffffffffffffffffffffffffffffffffffffffff163b11156117ab578273ffffffffffffffffffffffffffffffffffffffff1663150b7a02868685856040518563ffffffff1660e01b81526004016116609493929190612d43565b6020604051808303816000875af192505050801561169c57506040513d601f19601f820116820180604052508101906116999190612da4565b60015b611720573d80600081146116cc576040519150601f19603f3d011682016040523d82523d6000602084013e6116d1565b606091505b50600081510361171857836040517f64a0ae9200000000000000000000000000000000000000000000000000000000815260040161170f919061209c565b60405180910390fd5b805181602001fd5b63150b7a0260e01b7bffffffffffffffffffffffffffffffffffffffffffffffffffffffff1916817bffffffffffffffffffffffffffffffffffffffffffffffffffffffff1916146117a957836040517f64a0ae920000000000000000000000000000000000000000000000000000000081526004016117a0919061209c565b60405180910390fd5b505b5050505050565b6060600060016117c184611b6a565b01905060008167ffffffffffffffff8111156117e0576117df612359565b5b6040519080825280601f01601f1916602001820160405280156118125781602001600182028036833780820191505090505b509050600082602001820190505b600115611875578080600190039150507f3031323334353637383961626364656600000000000000000000000000000000600a86061a8153600a858161186957611868612dd1565b5b04945060008503611820575b819350505050919050565b60006002600083815260200190815260200160002060009054906101000a900473ffffffffffffffffffffffffffffffffffffffff169050919050565b80806118f65750600073ffffffffffffffffffffffffffffffffffffffff168273ffffffffffffffffffffffffffffffffffffffff1614155b15611a2a5760006119068461102e565b9050600073ffffffffffffffffffffffffffffffffffffffff168373ffffffffffffffffffffffffffffffffffffffff161415801561197157508273ffffffffffffffffffffffffffffffffffffffff168173ffffffffffffffffffffffffffffffffffffffff1614155b801561198457506119828184610e92565b155b156119c657826040517fa9fbf51f0000000000000000000000000000000000000000000000000000000081526004016119bd919061209c565b60405180910390fd5b8115611a2857838573ffffffffffffffffffffffffffffffffffffffff168273ffffffffffffffffffffffffffffffffffffffff167f8c5be1e5ebec7d5bd14f71427d1e84f3dd0314c0f7b2291e5b200ac8c7c3b92560405160405180910390a45b505b836004600085815260200190815260200160002060006101000a81548173ffffffffffffffffffffffffffffffffffffffff021916908373ffffffffffffffffffffffffffffffffffffffff16021790555050505050565b611a8d838383611cbd565b611b4157600073ffffffffffffffffffffffffffffffffffffffff168373ffffffffffffffffffffffffffffffffffffffff1603611b0257806040517f7e273289000000000000000000000000000000000000000000000000000000008152600401611af99190612132565b60405180910390fd5b81816040517f177e802f000000000000000000000000000000000000000000000000000000008152600401611b38929190612e00565b60405180910390fd5b505050565b611b508383611d7e565b611b65611b5b6110f3565b6000858585611601565b505050565b600080600090507a184f03e93ff9f4daa797ed6e38ed64bf6a1f0100000000000000008310611bc8577a184f03e93ff9f4daa797ed6e38ed64bf6a1f0100000000000000008381611bbe57611bbd612dd1565b5b0492506040810190505b6d04ee2d6d415b85acef81000000008310611c05576d04ee2d6d415b85acef81000000008381611bfb57611bfa612dd1565b5b0492506020810190505b662386f26fc100008310611c3457662386f26fc100008381611c2a57611c29612dd1565b5b0492506010810190505b6305f5e1008310611c5d576305f5e1008381611c5357611c52612dd1565b5b0492506008810190505b6127108310611c82576127108381611c7857611c77612dd1565b5b0492506004810190505b60648310611ca55760648381611c9b57611c9a612dd1565b5b0492506002810190505b600a8310611cb4576001810190505b80915050919050565b60008073ffffffffffffffffffffffffffffffffffffffff168373ffffffffffffffffffffffffffffffffffffffff1614158015611d7557508273ffffffffffffffffffffffffffffffffffffffff168473ffffffffffffffffffffffffffffffffffffffff161480611d365750611d358484610e92565b5b80611d7457508273ffffffffffffffffffffffffffffffffffffffff16611d5c836110b6565b73ffffffffffffffffffffffffffffffffffffffff16145b5b90509392505050565b600073ffffffffffffffffffffffffffffffffffffffff168273ffffffffffffffffffffffffffffffffffffffff1603611df05760006040517f64a0ae92000000000000000000000000000000000000000000000000000000008152600401611de7919061209c565b60405180910390fd5b6000611dfe83836000611194565b9050600073ffffffffffffffffffffffffffffffffffffffff168173ffffffffffffffffffffffffffffffffffffffff1614611e725760006040517f73c6ac6e000000000000000000000000000000000000000000000000000000008152600401611e69919061209c565b60405180910390fd5b505050565b60008115159050919050565b611e8c81611e77565b82525050565b6000602082019050611ea76000830184611e83565b92915050565b6000604051905090565b600080fd5b600080fd5b60007fffffffff0000000000000000000000000000000000000000000000000000000082169050919050565b611ef681611ec1565b8114611f0157600080fd5b50565b600081359050611f1381611eed565b92915050565b600060208284031215611f2f57611f2e611eb7565b5b6000611f3d84828501611f04565b91505092915050565b600081519050919050565b600082825260208201905092915050565b60005b83811015611f80578082015181840152602081019050611f65565b60008484015250505050565b6000601f19601f8301169050919050565b6000611fa882611f46565b611fb28185611f51565b9350611fc2818560208601611f62565b611fcb81611f8c565b840191505092915050565b60006020820190508181036000830152611ff08184611f9d565b905092915050565b6000819050919050565b61200b81611ff8565b811461201657600080fd5b50565b60008135905061202881612002565b92915050565b60006020828403121561204457612043611eb7565b5b600061205284828501612019565b91505092915050565b600073ffffffffffffffffffffffffffffffffffffffff82169050919050565b60006120868261205b565b9050919050565b6120968161207b565b82525050565b60006020820190506120b1600083018461208d565b92915050565b6120c08161207b565b81146120cb57600080fd5b50565b6000813590506120dd816120b7565b92915050565b600080604083850312156120fa576120f9611eb7565b5b6000612108858286016120ce565b925050602061211985828601612019565b9150509250929050565b61212c81611ff8565b82525050565b60006020820190506121476000830184612123565b92915050565b61215681611e77565b811461216157600080fd5b50565b6000813590506121738161214d565b92915050565b60006020828403121561218f5761218e611eb7565b5b600061219d84828501612164565b91505092915050565b6000806000606084860312156121bf576121be611eb7565b5b60006121cd868287016120ce565b93505060206121de868287016120ce565b92505060406121ef86828701612019565b9150509250925092565b60006020828403121561220f5761220e611eb7565b5b600061221d848285016120ce565b91505092915050565b60006122318261205b565b9050919050565b61224181612226565b82525050565b600060208201905061225c6000830184612238565b92915050565b600080fd5b600080fd5b600080fd5b60008083601f84011261228757612286612262565b5b8235905067ffffffffffffffff8111156122a4576122a3612267565b5b6020830191508360018202830111156122c0576122bf61226c565b5b9250929050565b600080602083850312156122de576122dd611eb7565b5b600083013567ffffffffffffffff8111156122fc576122fb611ebc565b5b61230885828601612271565b92509250509250929050565b6000806040838503121561232b5761232a611eb7565b5b6000612339858286016120ce565b925050602061234a85828601612164565b9150509250929050565b600080fd5b7f4e487b7100000000000000000000000000000000000000000000000000000000600052604160045260246000fd5b61239182611f8c565b810181811067ffffffffffffffff821117156123b0576123af612359565b5b80604052505050565b60006123c3611ead565b90506123cf8282612388565b919050565b600067ffffffffffffffff8211156123ef576123ee612359565b5b6123f882611f8c565b9050602081019050919050565b82818337600083830152505050565b6000612427612422846123d4565b6123b9565b90508281526020810184848401111561244357612442612354565b5b61244e848285612405565b509392505050565b600082601f83011261246b5761246a612262565b5b813561247b848260208601612414565b91505092915050565b6000806000806080858703121561249e5761249d611eb7565b5b60006124ac878288016120ce565b94505060206124bd878288016120ce565b93505060406124ce87828801612019565b925050606085013567ffffffffffffffff8111156124ef576124ee611ebc565b5b6124fb87828801612456565b91505092959194509250565b6000806040838503121561251e5761251d611eb7565b5b600061252c858286016120ce565b925050602061253d858286016120ce565b9150509250929050565b7f4e487b7100000000000000000000000000000000000000000000000000000000600052602260045260246000fd5b6000600282049050600182168061258e57607f821691505b6020821081036125a1576125a0612547565b5b50919050565b60006060820190506125bc600083018661208d565b6125c96020830185612123565b6125d6604083018461208d565b949350505050565b600081905092915050565b50565b60006125f96000836125de565b9150612604826125e9565b600082019050919050565b600061261a826125ec565b9150819050919050565b7f5769746864726177206661696c65640000000000000000000000000000000000600082015250565b600061265a600f83611f51565b915061266582612624565b602082019050919050565b600060208201905081810360008301526126898161264d565b9050919050565b600082905092915050565b60008190508160005260206000209050919050565b60006020601f8301049050919050565b600082821b905092915050565b6000600883026126fd7fffffffffffffffffffffffffffffffffffffffffffffffffffffffffffffffff826126c0565b61270786836126c0565b95508019841693508086168417925050509392505050565b6000819050919050565b600061274461273f61273a84611ff8565b61271f565b611ff8565b9050919050565b6000819050919050565b61275e83612729565b61277261276a8261274b565b8484546126cd565b825550505050565b600090565b61278761277a565b612792818484612755565b505050565b5b818110156127b6576127ab60008261277f565b600181019050612798565b5050565b601f8211156127fb576127cc8161269b565b6127d5846126b0565b810160208510156127e4578190505b6127f86127f0856126b0565b830182612797565b50505b505050565b600082821c905092915050565b600061281e60001984600802612800565b1980831691505092915050565b6000612837838361280d565b9150826002028217905092915050565b6128518383612690565b67ffffffffffffffff81111561286a57612869612359565b5b6128748254612576565b61287f8282856127ba565b6000601f8311600181146128ae576000841561289c578287013590505b6128a6858261282b565b86555061290e565b601f1984166128bc8661269b565b60005b828110156128e4578489013582556001820191506020850194506020810190506128bf565b8683101561290157848901356128fd601f89168261280d565b8355505b6001600288020188555050505b50505050505050565b7f5075626c6963206d696e742069732064697361626c6564000000000000000000600082015250565b600061294d601783611f51565b915061295882612917565b602082019050919050565b6000602082019050818103600083015261297c81612940565b9050919050565b7f4e487b7100000000000000000000000000000000000000000000000000000000600052601160045260246000fd5b60006129bd82611ff8565b91506129c883611ff8565b92508282026129d681611ff8565b915082820484148315176129ed576129ec612983565b5b5092915050565b7f496e76616c696420657468657220616d6f756e74000000000000000000000000600082015250565b6000612a2a601483611f51565b9150612a35826129f4565b602082019050919050565b60006020820190508181036000830152612a5981612a1d565b9050919050565b6000612a6b82611ff8565b9150612a7683611ff8565b9250828201905080821115612a8e57612a8d612983565b5b92915050565b7f536f6c64206f7574000000000000000000000000000000000000000000000000600082015250565b6000612aca600883611f51565b9150612ad582612a94565b602082019050919050565b60006020820190508181036000830152612af981612abd565b9050919050565b7f45786365656473206d6178207065722077616c6c657400000000000000000000600082015250565b6000612b36601683611f51565b9150612b4182612b00565b602082019050919050565b60006020820190508181036000830152612b6581612b29565b9050919050565b6000612b7782611ff8565b91507fffffffffffffffffffffffffffffffffffffffffffffffffffffffffffffffff8203612ba957612ba8612983565b5b600182019050919050565b600081905092915050565b60008154612bcc81612576565b612bd68186612bb4565b94506001821660008114612bf15760018114612c0657612c39565b60ff1983168652811515820286019350612c39565b612c0f8561269b565b60005b83811015612c3157815481890152600182019150602081019050612c12565b838801955050505b50505092915050565b6000612c4d82611f46565b612c578185612bb4565b9350612c67818560208601611f62565b80840191505092915050565b7f2e6a736f6e000000000000000000000000000000000000000000000000000000600082015250565b6000612ca9600583612bb4565b9150612cb482612c73565b600582019050919050565b6000612ccb8285612bbf565b9150612cd78284612c42565b9150612ce282612c9c565b91508190509392505050565b600081519050919050565b600082825260208201905092915050565b6000612d1582612cee565b612d1f8185612cf9565b9350612d2f818560208601611f62565b612d3881611f8c565b840191505092915050565b6000608082019050612d58600083018761208d565b612d65602083018661208d565b612d726040830185612123565b8181036060830152612d848184612d0a565b905095945050505050565b600081519050612d9e81611eed565b92915050565b600060208284031215612dba57612db9611eb7565b5b6000612dc884828501612d8f565b91505092915050565b7f4e487b7100000000000000000000000000000000000000000000000000000000600052601260045260246000fd5b6000604082019050612e15600083018561208d565b612e226020830184612123565b939250505056fea26469706673582212200735703e99b534afbe619620db4e6d7e8a5e9c2e8638e6d119031c475d9d7ebe64736f6c634300081b0033",
  "linkReferences": {},
  "deployedLinkReferences": {}
}